{
  "contractName": "DHedge",
  "abi": [
    {
      "anonymous": false,
      "inputs": [
        {
          "indexed": true,
          "internalType": "address",
          "name": "owner",
          "type": "address"
        },
        {
          "indexed": true,
          "internalType": "address",
          "name": "spender",
          "type": "address"
        },
        {
          "indexed": false,
          "internalType": "uint256",
          "name": "value",
          "type": "uint256"
        }
      ],
      "name": "Approval",
      "type": "event"
    },
    {
      "anonymous": false,
      "inputs": [
        {
          "indexed": false,
          "internalType": "address",
          "name": "fundAddress",
          "type": "address"
        },
        {
          "indexed": false,
          "internalType": "address",
          "name": "manager",
          "type": "address"
        },
        {
          "indexed": false,
          "internalType": "bytes32",
          "name": "assetKey",
          "type": "bytes32"
        }
      ],
      "name": "AssetAdded",
      "type": "event"
    },
    {
      "anonymous": false,
      "inputs": [
        {
          "indexed": false,
          "internalType": "address",
          "name": "fundAddress",
          "type": "address"
        },
        {
          "indexed": false,
          "internalType": "address",
          "name": "manager",
          "type": "address"
        },
        {
          "indexed": false,
          "internalType": "bytes32",
          "name": "assetKey",
          "type": "bytes32"
        }
      ],
      "name": "AssetRemoved",
      "type": "event"
    },
    {
      "anonymous": false,
      "inputs": [
        {
          "indexed": false,
          "internalType": "address",
          "name": "fundAddress",
          "type": "address"
        },
        {
          "indexed": false,
          "internalType": "address",
          "name": "investor",
          "type": "address"
        },
        {
          "indexed": false,
          "internalType": "uint256",
          "name": "valueDeposited",
          "type": "uint256"
        },
        {
          "indexed": false,
          "internalType": "uint256",
          "name": "fundTokensReceived",
          "type": "uint256"
        },
        {
          "indexed": false,
          "internalType": "uint256",
          "name": "totalInvestorFundTokens",
          "type": "uint256"
        },
        {
          "indexed": false,
          "internalType": "uint256",
          "name": "fundValue",
          "type": "uint256"
        },
        {
          "indexed": false,
          "internalType": "uint256",
          "name": "totalSupply",
          "type": "uint256"
        },
        {
          "indexed": false,
          "internalType": "uint256",
          "name": "time",
          "type": "uint256"
        }
      ],
      "name": "Deposit",
      "type": "event"
    },
    {
      "anonymous": false,
      "inputs": [
        {
          "indexed": false,
          "internalType": "address",
          "name": "fundAddress",
          "type": "address"
        },
        {
          "indexed": false,
          "internalType": "address",
          "name": "manager",
          "type": "address"
        },
        {
          "indexed": false,
          "internalType": "bytes32",
          "name": "sourceKey",
          "type": "bytes32"
        },
        {
          "indexed": false,
          "internalType": "uint256",
          "name": "sourceAmount",
          "type": "uint256"
        },
        {
          "indexed": false,
          "internalType": "bytes32",
          "name": "destinationKey",
          "type": "bytes32"
        },
        {
          "indexed": false,
          "internalType": "uint256",
          "name": "destinationAmount",
          "type": "uint256"
        },
        {
          "indexed": false,
          "internalType": "uint256",
          "name": "time",
          "type": "uint256"
        }
      ],
      "name": "Exchange",
      "type": "event"
    },
    {
      "anonymous": false,
      "inputs": [
        {
          "indexed": false,
          "internalType": "address",
          "name": "pool",
          "type": "address"
        },
        {
          "indexed": false,
          "internalType": "address",
          "name": "manager",
          "type": "address"
        },
        {
          "indexed": false,
          "internalType": "uint256",
          "name": "available",
          "type": "uint256"
        },
        {
          "indexed": false,
          "internalType": "uint256",
          "name": "daoFee",
          "type": "uint256"
        },
        {
          "indexed": false,
          "internalType": "uint256",
          "name": "managerFee",
          "type": "uint256"
        },
        {
          "indexed": false,
          "internalType": "uint256",
          "name": "tokenPriceAtLastFeeMint",
          "type": "uint256"
        }
      ],
      "name": "ManagerFeeMinted",
      "type": "event"
    },
    {
      "anonymous": false,
      "inputs": [
        {
          "indexed": false,
          "internalType": "address",
          "name": "fundAddress",
          "type": "address"
        },
        {
          "indexed": false,
          "internalType": "address",
          "name": "manager",
          "type": "address"
        },
        {
          "indexed": false,
          "internalType": "uint256",
          "name": "numerator",
          "type": "uint256"
        },
        {
          "indexed": false,
          "internalType": "uint256",
          "name": "denominator",
          "type": "uint256"
        }
      ],
      "name": "ManagerFeeSet",
      "type": "event"
    },
    {
      "anonymous": false,
      "inputs": [
        {
          "indexed": false,
          "internalType": "address",
          "name": "newManager",
          "type": "address"
        },
        {
          "indexed": false,
          "internalType": "string",
          "name": "newManagerName",
          "type": "string"
        }
      ],
      "name": "ManagerUpdated",
      "type": "event"
    },
    {
      "anonymous": false,
      "inputs": [
        {
          "indexed": false,
          "internalType": "bool",
          "name": "isPoolPrivate",
          "type": "bool"
        }
      ],
      "name": "PoolPrivacyUpdated",
      "type": "event"
    },
    {
      "anonymous": false,
      "inputs": [
        {
          "indexed": true,
          "internalType": "address",
          "name": "from",
          "type": "address"
        },
        {
          "indexed": true,
          "internalType": "address",
          "name": "to",
          "type": "address"
        },
        {
          "indexed": false,
          "internalType": "uint256",
          "name": "value",
          "type": "uint256"
        }
      ],
      "name": "Transfer",
      "type": "event"
    },
    {
      "anonymous": false,
      "inputs": [
        {
          "indexed": false,
          "internalType": "address",
          "name": "fundAddress",
          "type": "address"
        },
        {
          "indexed": false,
          "internalType": "address",
          "name": "investor",
          "type": "address"
        },
        {
          "indexed": false,
          "internalType": "uint256",
          "name": "valueWithdrawn",
          "type": "uint256"
        },
        {
          "indexed": false,
          "internalType": "uint256",
          "name": "fundTokensWithdrawn",
          "type": "uint256"
        },
        {
          "indexed": false,
          "internalType": "uint256",
          "name": "totalInvestorFundTokens",
          "type": "uint256"
        },
        {
          "indexed": false,
          "internalType": "uint256",
          "name": "fundValue",
          "type": "uint256"
        },
        {
          "indexed": false,
          "internalType": "uint256",
          "name": "totalSupply",
          "type": "uint256"
        },
        {
          "indexed": false,
          "internalType": "uint256",
          "name": "time",
          "type": "uint256"
        }
      ],
      "name": "Withdrawal",
      "type": "event"
    },
    {
      "inputs": [
        {
          "internalType": "address",
          "name": "member",
          "type": "address"
        }
      ],
      "name": "addMember",
      "outputs": [],
      "stateMutability": "nonpayable",
      "type": "function"
    },
    {
      "inputs": [
        {
          "internalType": "address[]",
          "name": "members",
          "type": "address[]"
        }
      ],
      "name": "addMembers",
      "outputs": [],
      "stateMutability": "nonpayable",
      "type": "function"
    },
    {
      "inputs": [],
      "name": "addressResolver",
      "outputs": [
        {
          "internalType": "contract IAddressResolver",
          "name": "",
          "type": "address"
        }
      ],
      "stateMutability": "view",
      "type": "function"
    },
    {
      "inputs": [
        {
          "internalType": "address",
          "name": "owner",
          "type": "address"
        },
        {
          "internalType": "address",
          "name": "spender",
          "type": "address"
        }
      ],
      "name": "allowance",
      "outputs": [
        {
          "internalType": "uint256",
          "name": "",
          "type": "uint256"
        }
      ],
      "stateMutability": "view",
      "type": "function"
    },
    {
      "inputs": [
        {
          "internalType": "address",
          "name": "spender",
          "type": "address"
        },
        {
          "internalType": "uint256",
          "name": "amount",
          "type": "uint256"
        }
      ],
      "name": "approve",
      "outputs": [
        {
          "internalType": "bool",
          "name": "",
          "type": "bool"
        }
      ],
      "stateMutability": "nonpayable",
      "type": "function"
    },
    {
      "inputs": [
        {
          "internalType": "bytes32",
          "name": "",
          "type": "bytes32"
        }
      ],
      "name": "assetPosition",
      "outputs": [
        {
          "internalType": "uint256",
          "name": "",
          "type": "uint256"
        }
      ],
      "stateMutability": "view",
      "type": "function"
    },
    {
      "inputs": [
        {
          "internalType": "address",
          "name": "account",
          "type": "address"
        }
      ],
      "name": "balanceOf",
      "outputs": [
        {
          "internalType": "uint256",
          "name": "",
          "type": "uint256"
        }
      ],
      "stateMutability": "view",
      "type": "function"
    },
    {
      "inputs": [
        {
          "internalType": "address",
          "name": "newManager",
          "type": "address"
        },
        {
          "internalType": "string",
          "name": "newManagerName",
          "type": "string"
        }
      ],
      "name": "changeManager",
      "outputs": [],
      "stateMutability": "nonpayable",
      "type": "function"
    },
    {
      "inputs": [],
      "name": "creationTime",
      "outputs": [
        {
          "internalType": "uint256",
          "name": "",
          "type": "uint256"
        }
      ],
      "stateMutability": "view",
      "type": "function"
    },
    {
      "inputs": [],
      "name": "creator",
      "outputs": [
        {
          "internalType": "address",
          "name": "",
          "type": "address"
        }
      ],
      "stateMutability": "view",
      "type": "function"
    },
    {
      "inputs": [],
      "name": "decimals",
      "outputs": [
        {
          "internalType": "uint8",
          "name": "",
          "type": "uint8"
        }
      ],
      "stateMutability": "view",
      "type": "function"
    },
    {
      "inputs": [
        {
          "internalType": "address",
          "name": "spender",
          "type": "address"
        },
        {
          "internalType": "uint256",
          "name": "subtractedValue",
          "type": "uint256"
        }
      ],
      "name": "decreaseAllowance",
      "outputs": [
        {
          "internalType": "bool",
          "name": "",
          "type": "bool"
        }
      ],
      "stateMutability": "nonpayable",
      "type": "function"
    },
    {
      "inputs": [],
      "name": "factory",
      "outputs": [
        {
          "internalType": "address",
          "name": "",
          "type": "address"
        }
      ],
      "stateMutability": "view",
      "type": "function"
    },
    {
      "inputs": [],
      "name": "getMembers",
      "outputs": [
        {
          "internalType": "address[]",
          "name": "",
          "type": "address[]"
        }
      ],
      "stateMutability": "view",
      "type": "function"
    },
    {
      "inputs": [
        {
          "internalType": "address",
          "name": "spender",
          "type": "address"
        },
        {
          "internalType": "uint256",
          "name": "addedValue",
          "type": "uint256"
        }
      ],
      "name": "increaseAllowance",
      "outputs": [
        {
          "internalType": "bool",
          "name": "",
          "type": "bool"
        }
      ],
      "stateMutability": "nonpayable",
      "type": "function"
    },
    {
      "inputs": [
        {
          "internalType": "address",
          "name": "member",
          "type": "address"
        }
      ],
      "name": "isMemberAllowed",
      "outputs": [
        {
          "internalType": "bool",
          "name": "",
          "type": "bool"
        }
      ],
      "stateMutability": "view",
      "type": "function"
    },
    {
      "inputs": [
        {
          "internalType": "address",
          "name": "",
          "type": "address"
        }
      ],
      "name": "lastDeposit",
      "outputs": [
        {
          "internalType": "uint256",
          "name": "",
          "type": "uint256"
        }
      ],
      "stateMutability": "view",
      "type": "function"
    },
    {
      "inputs": [],
      "name": "manager",
      "outputs": [
        {
          "internalType": "address",
          "name": "",
          "type": "address"
        }
      ],
      "stateMutability": "view",
      "type": "function"
    },
    {
      "inputs": [],
      "name": "managerName",
      "outputs": [
        {
          "internalType": "string",
          "name": "",
          "type": "string"
        }
      ],
      "stateMutability": "view",
      "type": "function"
    },
    {
      "inputs": [],
      "name": "name",
      "outputs": [
        {
          "internalType": "string",
          "name": "",
          "type": "string"
        }
      ],
      "stateMutability": "view",
      "type": "function"
    },
    {
      "inputs": [],
      "name": "numberOfMembers",
      "outputs": [
        {
          "internalType": "uint256",
          "name": "",
          "type": "uint256"
        }
      ],
      "stateMutability": "view",
      "type": "function"
    },
    {
      "inputs": [
        {
          "internalType": "bytes32",
          "name": "",
          "type": "bytes32"
        }
      ],
      "name": "persistentAsset",
      "outputs": [
        {
          "internalType": "bool",
          "name": "",
          "type": "bool"
        }
      ],
      "stateMutability": "view",
      "type": "function"
    },
    {
      "inputs": [],
      "name": "privatePool",
      "outputs": [
        {
          "internalType": "bool",
          "name": "",
          "type": "bool"
        }
      ],
      "stateMutability": "view",
      "type": "function"
    },
    {
      "inputs": [
        {
          "internalType": "address",
          "name": "member",
          "type": "address"
        }
      ],
      "name": "removeMember",
      "outputs": [],
      "stateMutability": "nonpayable",
      "type": "function"
    },
    {
      "inputs": [
        {
          "internalType": "address[]",
          "name": "members",
          "type": "address[]"
        }
      ],
      "name": "removeMembers",
      "outputs": [],
      "stateMutability": "nonpayable",
      "type": "function"
    },
    {
      "inputs": [
        {
          "internalType": "uint256",
          "name": "",
          "type": "uint256"
        }
      ],
      "name": "supportedAssets",
      "outputs": [
        {
          "internalType": "bytes32",
          "name": "",
          "type": "bytes32"
        }
      ],
      "stateMutability": "view",
      "type": "function"
    },
    {
      "inputs": [],
      "name": "symbol",
      "outputs": [
        {
          "internalType": "string",
          "name": "",
          "type": "string"
        }
      ],
      "stateMutability": "view",
      "type": "function"
    },
    {
      "inputs": [],
      "name": "tokenPriceAtLastFeeMint",
      "outputs": [
        {
          "internalType": "uint256",
          "name": "",
          "type": "uint256"
        }
      ],
      "stateMutability": "view",
      "type": "function"
    },
    {
      "inputs": [],
      "name": "totalSupply",
      "outputs": [
        {
          "internalType": "uint256",
          "name": "",
          "type": "uint256"
        }
      ],
      "stateMutability": "view",
      "type": "function"
    },
    {
      "inputs": [
        {
          "internalType": "address",
          "name": "recipient",
          "type": "address"
        },
        {
          "internalType": "uint256",
          "name": "amount",
          "type": "uint256"
        }
      ],
      "name": "transfer",
      "outputs": [
        {
          "internalType": "bool",
          "name": "",
          "type": "bool"
        }
      ],
      "stateMutability": "nonpayable",
      "type": "function"
    },
    {
      "inputs": [
        {
          "internalType": "address",
          "name": "sender",
          "type": "address"
        },
        {
          "internalType": "address",
          "name": "recipient",
          "type": "address"
        },
        {
          "internalType": "uint256",
          "name": "amount",
          "type": "uint256"
        }
      ],
      "name": "transferFrom",
      "outputs": [
        {
          "internalType": "bool",
          "name": "",
          "type": "bool"
        }
      ],
      "stateMutability": "nonpayable",
      "type": "function"
    },
    {
      "inputs": [
        {
          "internalType": "address",
          "name": "_factory",
          "type": "address"
        },
        {
          "internalType": "bool",
          "name": "_privatePool",
          "type": "bool"
        },
        {
          "internalType": "address",
          "name": "_manager",
          "type": "address"
        },
        {
          "internalType": "string",
          "name": "_managerName",
          "type": "string"
        },
        {
          "internalType": "string",
          "name": "_fundName",
          "type": "string"
        },
        {
          "internalType": "contract IAddressResolver",
          "name": "_addressResolver",
          "type": "address"
        },
        {
          "internalType": "bytes32[]",
          "name": "_supportedAssets",
          "type": "bytes32[]"
        }
      ],
      "name": "initialize",
      "outputs": [],
      "stateMutability": "nonpayable",
      "type": "function"
    },
    {
      "inputs": [
        {
          "internalType": "bool",
          "name": "_privatePool",
          "type": "bool"
        }
      ],
      "name": "setPoolPrivate",
      "outputs": [],
      "stateMutability": "nonpayable",
      "type": "function"
    },
    {
      "inputs": [
        {
          "internalType": "bytes32",
          "name": "key",
          "type": "bytes32"
        }
      ],
      "name": "getAssetProxy",
      "outputs": [
        {
          "internalType": "address",
          "name": "",
          "type": "address"
        }
      ],
      "stateMutability": "view",
      "type": "function"
    },
    {
      "inputs": [
        {
          "internalType": "bytes32",
          "name": "key",
          "type": "bytes32"
        }
      ],
      "name": "isAssetSupported",
      "outputs": [
        {
          "internalType": "bool",
          "name": "",
          "type": "bool"
        }
      ],
      "stateMutability": "view",
      "type": "function"
    },
    {
      "inputs": [
        {
          "internalType": "bytes32",
          "name": "key",
          "type": "bytes32"
        }
      ],
      "name": "validateAsset",
      "outputs": [
        {
          "internalType": "bool",
          "name": "",
          "type": "bool"
        }
      ],
      "stateMutability": "view",
      "type": "function"
    },
    {
      "inputs": [
        {
          "internalType": "bytes32",
          "name": "key",
          "type": "bytes32"
        }
      ],
      "name": "addToSupportedAssets",
      "outputs": [],
      "stateMutability": "nonpayable",
      "type": "function"
    },
    {
      "inputs": [
        {
          "internalType": "bytes32",
          "name": "key",
          "type": "bytes32"
        }
      ],
      "name": "removeFromSupportedAssets",
      "outputs": [],
      "stateMutability": "nonpayable",
      "type": "function"
    },
    {
      "inputs": [],
      "name": "numberOfSupportedAssets",
      "outputs": [
        {
          "internalType": "uint256",
          "name": "",
          "type": "uint256"
        }
      ],
      "stateMutability": "view",
      "type": "function"
    },
    {
      "inputs": [
        {
          "internalType": "bytes32",
          "name": "sourceKey",
          "type": "bytes32"
        },
        {
          "internalType": "uint256",
          "name": "sourceAmount",
          "type": "uint256"
        },
        {
          "internalType": "bytes32",
          "name": "destinationKey",
          "type": "bytes32"
        }
      ],
      "name": "exchange",
      "outputs": [],
      "stateMutability": "nonpayable",
      "type": "function"
    },
    {
      "inputs": [],
      "name": "totalFundValue",
      "outputs": [
        {
          "internalType": "uint256",
          "name": "",
          "type": "uint256"
        }
      ],
      "stateMutability": "view",
      "type": "function"
    },
    {
      "inputs": [
        {
          "internalType": "bytes32",
          "name": "key",
          "type": "bytes32"
        }
      ],
      "name": "assetValue",
      "outputs": [
        {
          "internalType": "uint256",
          "name": "",
          "type": "uint256"
        }
      ],
      "stateMutability": "view",
      "type": "function"
    },
    {
      "inputs": [
        {
          "internalType": "uint256",
          "name": "_susdAmount",
          "type": "uint256"
        }
      ],
      "name": "deposit",
      "outputs": [
        {
          "internalType": "uint256",
          "name": "",
          "type": "uint256"
        }
      ],
      "stateMutability": "nonpayable",
      "type": "function"
    },
    {
      "inputs": [
        {
          "internalType": "uint256",
          "name": "_fundTokenAmount",
          "type": "uint256"
        }
      ],
      "name": "withdraw",
      "outputs": [],
      "stateMutability": "nonpayable",
      "type": "function"
    },
    {
      "inputs": [
        {
          "internalType": "uint256",
          "name": "_fundTokenAmount",
          "type": "uint256"
        }
      ],
      "name": "forfeitSuspendedSynthsAndWithdraw",
      "outputs": [],
      "stateMutability": "nonpayable",
      "type": "function"
    },
    {
      "inputs": [],
      "name": "getFundSummary",
      "outputs": [
        {
          "internalType": "string",
          "name": "",
          "type": "string"
        },
        {
          "internalType": "uint256",
          "name": "",
          "type": "uint256"
        },
        {
          "internalType": "uint256",
          "name": "",
          "type": "uint256"
        },
        {
          "internalType": "address",
          "name": "",
          "type": "address"
        },
        {
          "internalType": "string",
          "name": "",
          "type": "string"
        },
        {
          "internalType": "uint256",
          "name": "",
          "type": "uint256"
        },
        {
          "internalType": "bool",
          "name": "",
          "type": "bool"
        },
        {
          "internalType": "uint256",
          "name": "",
          "type": "uint256"
        },
        {
          "internalType": "uint256",
          "name": "",
          "type": "uint256"
        },
        {
          "internalType": "uint256",
          "name": "",
          "type": "uint256"
        },
        {
          "internalType": "uint256",
          "name": "",
          "type": "uint256"
        }
      ],
      "stateMutability": "view",
      "type": "function"
    },
    {
      "inputs": [],
      "name": "getSupportedAssets",
      "outputs": [
        {
          "internalType": "bytes32[]",
          "name": "",
          "type": "bytes32[]"
        }
      ],
      "stateMutability": "view",
      "type": "function"
    },
    {
      "inputs": [],
      "name": "getFundComposition",
      "outputs": [
        {
          "internalType": "bytes32[]",
          "name": "",
          "type": "bytes32[]"
        },
        {
          "internalType": "uint256[]",
          "name": "",
          "type": "uint256[]"
        },
        {
          "internalType": "uint256[]",
          "name": "",
          "type": "uint256[]"
        }
      ],
      "stateMutability": "view",
      "type": "function"
    },
    {
      "inputs": [],
      "name": "getWaitingPeriods",
      "outputs": [
        {
          "internalType": "bytes32[]",
          "name": "",
          "type": "bytes32[]"
        },
        {
          "internalType": "uint256[]",
          "name": "",
          "type": "uint256[]"
        }
      ],
      "stateMutability": "view",
      "type": "function"
    },
    {
      "inputs": [],
      "name": "getSuspendedAssets",
      "outputs": [
        {
          "internalType": "bytes32[]",
          "name": "",
          "type": "bytes32[]"
        },
        {
          "internalType": "bool[]",
          "name": "",
          "type": "bool[]"
        }
      ],
      "stateMutability": "view",
      "type": "function"
    },
    {
      "inputs": [],
      "name": "tokenPrice",
      "outputs": [
        {
          "internalType": "uint256",
          "name": "",
          "type": "uint256"
        }
      ],
      "stateMutability": "view",
      "type": "function"
    },
    {
      "inputs": [],
      "name": "availableManagerFee",
      "outputs": [
        {
          "internalType": "uint256",
          "name": "",
          "type": "uint256"
        }
      ],
      "stateMutability": "view",
      "type": "function"
    },
    {
      "inputs": [],
      "name": "mintManagerFee",
      "outputs": [],
      "stateMutability": "nonpayable",
      "type": "function"
    },
    {
      "inputs": [],
      "name": "getManagerFee",
      "outputs": [
        {
          "internalType": "uint256",
          "name": "",
          "type": "uint256"
        },
        {
          "internalType": "uint256",
          "name": "",
          "type": "uint256"
        }
      ],
      "stateMutability": "view",
      "type": "function"
    },
    {
      "inputs": [
        {
          "internalType": "uint256",
          "name": "numerator",
          "type": "uint256"
        }
      ],
      "name": "setManagerFeeNumerator",
      "outputs": [],
      "stateMutability": "nonpayable",
      "type": "function"
    },
    {
      "inputs": [],
      "name": "getExitFee",
      "outputs": [
        {
          "internalType": "uint256",
          "name": "",
          "type": "uint256"
        },
        {
          "internalType": "uint256",
          "name": "",
          "type": "uint256"
        }
      ],
      "stateMutability": "view",
      "type": "function"
    },
    {
      "inputs": [],
      "name": "getExitFeeCooldown",
      "outputs": [
        {
          "internalType": "uint256",
          "name": "",
          "type": "uint256"
        }
      ],
      "stateMutability": "view",
      "type": "function"
    },
    {
      "inputs": [
        {
          "internalType": "address",
          "name": "sender",
          "type": "address"
        }
      ],
      "name": "getExitFeeRemainingCooldown",
      "outputs": [
        {
          "internalType": "uint256",
          "name": "",
          "type": "uint256"
        }
      ],
      "stateMutability": "view",
      "type": "function"
    }
  ],
  "bytecode": "0x608060405234801561001057600080fd5b50615646806100206000396000f3fe608060405234801561001057600080fd5b506004361061038e5760003560e01c80637ff9b596116101de578063ca6d56dc1161010f578063e5406dbf116100ad578063edbf6f501161007c578063edbf6f5014610eba578063ee52a2f314610ec2578063f09d14d714610eeb578063fed4416a14610fd15761038e565b8063e5406dbf14610e85578063e5ea775914610e8d578063ecb0116a14610eaa578063eda96ea914610eb25761038e565b8063d44fa33e116100e9578063d44fa33e14610e15578063d78d7c2e14610e32578063d8270dce14610e4f578063dd62ed3e14610e575761038e565b8063ca6d56dc14610dca578063cc3c6df614610df0578063d3cfb3b614610df85761038e565b8063aa31c70c1161017c578063b6b55f2511610156578063b6b55f2514610d62578063bbbf725b14610d7f578063c45a015514610da5578063c68dbb3714610dad5761038e565b8063aa31c70c14610b57578063ad60ffcc14610d34578063adefd87114610d3c5761038e565b80639eab5253116101b85780639eab525314610a9f578063a30e3fa914610af7578063a457c2d714610aff578063a9059cbb14610b2b5761038e565b80637ff9b59614610a87578063936553c414610a8f57806395d89b4114610a975761038e565b80632e1a7d4d116102c3578063481c6a75116102615780636707974911610230578063670797491461099b5780636f4d469b146109b857806370a0823114610a595780637714f39d14610a7f5761038e565b8063481c6a75146108ba57806352213663146108c257806353d9133e1461097657806359b5e75e146109935761038e565b80633babaad51161029d5780633babaad5146107d55780633c866241146107f45780633ded6530146107fc57806346ee84b0146108195761038e565b80632e1a7d4d1461076e578063313ce5671461078b57806339509351146107a95761038e565b80630bf8ad00116103305780631c5918d21161030a5780631c5918d21461053657806321f8c9841461067157806323b872dd1461071257806329d16ee8146107485761038e565b80630bf8ad00146104f057806318160ddd1461050d57806319805538146105155761038e565b806305a2ee2a1161036c57806305a2ee2a1461040557806306fdde031461040d578063095ea7b31461048a5780630b1ca49a146104ca5761038e565b8063023f21de1461039357806302d05d3f146103b25780630499123f146103d6575b600080fd5b6103b0600480360360208110156103a957600080fd5b5035610fd9565b005b6103ba6112e9565b604080516001600160a01b039092168252519081900360200190f35b6103f3600480360360208110156103ec57600080fd5b50356112fd565b60408051918252519081900360200190f35b6103ba6114a3565b6104156114b2565b6040805160208082528351818301528351919283929083019185019080838360005b8381101561044f578181015183820152602001610437565b50505050905090810190601f16801561047c5780820380516001836020036101000a031916815260200191505b509250505060405180910390f35b6104b6600480360360408110156104a057600080fd5b506001600160a01b038135169060200135611549565b604080519115158252519081900360200190f35b6103b0600480360360208110156104e057600080fd5b50356001600160a01b0316611567565b6103b06004803603602081101561050657600080fd5b50356115d3565b6103f36115de565b61051d6115e4565b6040805192835260208301919091528051918290030190f35b61053e61166b565b60405180806020018c81526020018b81526020018a6001600160a01b03166001600160a01b03168152602001806020018981526020018815151515815260200187815260200186815260200185815260200184815260200183810383528e818151815260200191508051906020019080838360005b838110156105cb5781810151838201526020016105b3565b50505050905090810190601f1680156105f85780820380516001836020036101000a031916815260200191505b5083810382528a5181528a516020918201918c019080838360005b8381101561062b578181015183820152602001610613565b50505050905090810190601f1680156106585780820380516001836020036101000a031916815260200191505b509d505050505050505050505050505060405180910390f35b6106796117e8565b604051808060200180602001838103835285818151815260200191508051906020019060200280838360005b838110156106bd5781810151838201526020016106a5565b50505050905001838103825284818151815260200191508051906020019060200280838360005b838110156106fc5781810151838201526020016106e4565b5050505090500194505050505060405180910390f35b6104b66004803603606081101561072857600080fd5b506001600160a01b038135811691602081013590911690604001356119c9565b6103f36004803603602081101561075e57600080fd5b50356001600160a01b0316611a56565b6103b06004803603602081101561078457600080fd5b5035611a68565b610793611a73565b6040805160ff9092168252519081900360200190f35b6104b6600480360360408110156107bf57600080fd5b506001600160a01b038135169060200135611a7c565b6103b0600480360360208110156107eb57600080fd5b50351515611ad0565b610679611b7e565b6103ba6004803603602081101561081257600080fd5b5035611d46565b6103b06004803603602081101561082f57600080fd5b810190602081018135600160201b81111561084957600080fd5b82018360208201111561085b57600080fd5b803590602001918460208302840111600160201b8311171561087c57600080fd5b919080806020026020016040519081016040528093929190818152602001838360200280828437600092019190915250929550611f49945050505050565b6103ba611fec565b6103b0600480360360408110156108d857600080fd5b6001600160a01b038235169190810190604081016020820135600160201b81111561090257600080fd5b82018360208201111561091457600080fd5b803590602001918460018302840111600160201b8311171561093557600080fd5b91908080601f016020809104026020016040519081016040528093929190818152602001838380828437600092019190915250929550611ffb945050505050565b6103b06004803603602081101561098c57600080fd5b503561212f565b6104b6612186565b6104b6600480360360208110156109b157600080fd5b503561218f565b6103b0600480360360208110156109ce57600080fd5b810190602081018135600160201b8111156109e857600080fd5b8201836020820111156109fa57600080fd5b803590602001918460208302840111600160201b83111715610a1b57600080fd5b9190808060200260200160405190810160405280939291908181526020018383602002808284376000920191909152509295506121a4945050505050565b6103f360048036036020811015610a6f57600080fd5b50356001600160a01b031661223b565b6103f3612256565b6103f361225c565b6103f3612286565b61041561228c565b610aa76122ed565b60408051602080825283518183015283519192839290830191858101910280838360005b83811015610ae3578181015183820152602001610acb565b505050509050019250505060405180910390f35b6103f361234e565b6104b660048036036040811015610b1557600080fd5b506001600160a01b038135169060200135612354565b6104b660048036036040811015610b4157600080fd5b506001600160a01b0381351690602001356123c2565b6103b0600480360360e0811015610b6d57600080fd5b6001600160a01b0382358116926020810135151592604082013590921691810190608081016060820135600160201b811115610ba857600080fd5b820183602082011115610bba57600080fd5b803590602001918460018302840111600160201b83111715610bdb57600080fd5b91908080601f0160208091040260200160405190810160405280939291908181526020018383808284376000920191909152509295949360208101935035915050600160201b811115610c2d57600080fd5b820183602082011115610c3f57600080fd5b803590602001918460018302840111600160201b83111715610c6057600080fd5b91908080601f01602080910402602001604051908101604052809392919081815260200183838082843760009201919091525092956001600160a01b03853516959094909350604081019250602001359050600160201b811115610cc357600080fd5b820183602082011115610cd557600080fd5b803590602001918460208302840111600160201b83111715610cf657600080fd5b9190808060200260200160405190810160405280939291908181526020018383602002808284376000920191909152509295506123d6945050505050565b6103f3612591565b6103f360048036036020811015610d5257600080fd5b50356001600160a01b03166125e5565b6103f360048036036020811015610d7857600080fd5b50356126bc565b6104b660048036036020811015610d9557600080fd5b50356001600160a01b0316612a42565b6103ba612a5f565b6103f360048036036020811015610dc357600080fd5b5035612a6e565b6103b060048036036020811015610de057600080fd5b50356001600160a01b0316612a8c565b6103b0612af6565b6103b060048036036020811015610e0e57600080fd5b5035612b02565b6104b660048036036020811015610e2b57600080fd5b5035612b59565b6103f360048036036020811015610e4857600080fd5b5035612b6d565b6103f3612b7f565b6103f360048036036040811015610e6d57600080fd5b506001600160a01b0381358116916020013516612b85565b610aa7612bb0565b6104b660048036036020811015610ea357600080fd5b5035612c07565b61051d612da0565b6103f3612de5565b6103f3612e5b565b6103b060048036036060811015610ed857600080fd5b5080359060208101359060400135612f11565b610ef3613292565b60405180806020018060200180602001848103845287818151815260200191508051906020019060200280838360005b83811015610f3b578181015183820152602001610f23565b50505050905001848103835286818151815260200191508051906020019060200280838360005b83811015610f7a578181015183820152602001610f62565b50505050905001848103825285818151815260200191508051906020019060200280838360005b83811015610fb9578181015183820152602001610fa1565b50505050905001965050505050505060405180910390f35b61041561353f565b6097546001600160a01b03163314611027576040805162461bcd60e51b815260206004820152600c60248201526b37b7363c9036b0b730b3b2b960a11b604482015290519081900360640190fd5b61103081612b59565b611077576040805162461bcd60e51b8152602060048201526013602482015272185cdcd95d081b9bdd081cdd5c1c1bdc9d1959606a1b604482015290519081900360640190fd5b600081815260d3602052604090205460ff16156110c55760405162461bcd60e51b81526004018080602001828103825260228152602001806154a06022913960400191505060405180910390fd5b60cf54604080516321f8a72160e01b8152680a6f2dce8d0cae8d2f60bb1b600482015290516000926001600160a01b0316916321f8a721916024808301926020929190829003018186803b15801561111c57600080fd5b505afa158015611130573d6000803e3d6000fd5b505050506040513d602081101561114657600080fd5b50516040805163987757dd60e01b81526004810185905290519192506001600160a01b0383169163987757dd916024808201926060929091908290030181600087803b15801561119557600080fd5b505af11580156111a9573d6000803e3d6000fd5b505050506040513d60608110156111bf57600080fd5b506111cb905082611d46565b6001600160a01b03166370a08231306040518263ffffffff1660e01b815260040180826001600160a01b03166001600160a01b0316815260200191505060206040518083038186803b15801561122057600080fd5b505afa158015611234573d6000803e3d6000fd5b505050506040513d602081101561124a57600080fd5b5051156112885760405162461bcd60e51b815260040180806020018281038252602181526020018061543b6021913960400191505060405180910390fd5b631cd554d160e21b8214156112dc576040805162461bcd60e51b81526020600482015260156024820152741cd554d10818d85b89dd081899481c995b5bdd9959605a1b604482015290519081900360640190fd5b6112e5826135a0565b5050565b60cd5461010090046001600160a01b031681565b60cf54604080516321f8a72160e01b81526c45786368616e6765526174657360981b600482015290516000926001600160a01b0316916321f8a721916024808301926020929190829003018186803b15801561135857600080fd5b505afa15801561136c573d6000803e3d6000fd5b505050506040513d602081101561138257600080fd5b50516001600160a01b031663654a60ac8361139c81611d46565b6001600160a01b03166370a08231306040518263ffffffff1660e01b815260040180826001600160a01b03166001600160a01b0316815260200191505060206040518083038186803b1580156113f157600080fd5b505afa158015611405573d6000803e3d6000fd5b505050506040513d602081101561141b57600080fd5b5051604080516001600160e01b031960e086901b16815260048101939093526024830191909152631cd554d160e21b6044830152516064808301926020929190829003018186803b15801561146f57600080fd5b505afa158015611483573d6000803e3d6000fd5b505050506040513d602081101561149957600080fd5b505190505b919050565b60cf546001600160a01b031681565b60688054604080516020601f600260001961010060018816150201909516949094049384018190048102820181019092528281526060939092909183018282801561153e5780601f106115135761010080835404028352916020019161153e565b820191906000526020600020905b81548152906001019060200180831161152157829003601f168201915b505050505090505b90565b600061155d6115566136b2565b84846136b6565b5060015b92915050565b6097546001600160a01b031633146115b5576040805162461bcd60e51b815260206004820152600c60248201526b37b7363c9036b0b730b3b2b960a11b604482015290519081900360640190fd5b6115be81612a42565b6115c7576115d0565b6115d0816137a2565b50565b6115d08160016138a7565b60675490565b60d05460408051635bd2a29360e11b8152306004820152815160009384936001600160a01b039091169263b7a545269260248083019392829003018186803b15801561162f57600080fd5b505afa158015611643573d6000803e3d6000fd5b505050506040513d604081101561165957600080fd5b50805160209091015190925090509091565b60d05460408051635bd2a29360e11b81523060048201528151606093600093849384938793859384938493849384938493849384936001600160a01b03169263b7a545269260248082019391829003018186803b1580156116cb57600080fd5b505afa1580156116df573d6000803e3d6000fd5b505050506040513d60408110156116f557600080fd5b50805160209091015160d0546040805163765808b560e11b8152815194965092945060009384936001600160a01b039093169263ecb0116a926004808301939192829003018186803b15801561174a57600080fd5b505afa15801561175e573d6000803e3d6000fd5b505050506040513d604081101561177457600080fd5b508051602090910151909250905061178a6114b2565b6117926115de565b61179a612591565b6117a2611fec565b6117aa61353f565b60ce5460cd60009054906101000a900460ff168a8a8a8a9e509e509e509e509e509e509e509e509e509e509e5050505050909192939495969798999a565b60d1546040805182815260208084028201019091526060918291829082801561181b578160200160208202803883390190505b50905060608260405190808252806020026020018201604052801561184a578160200160208202803883390190505b5060cf54604080516321f8a72160e01b81526b53797374656d53746174757360a01b600482015290519293506000926001600160a01b03909216916321f8a72191602480820192602092909190829003018186803b1580156118ab57600080fd5b505afa1580156118bf573d6000803e3d6000fd5b505050506040513d60208110156118d557600080fd5b5051905060005b848110156119bd57600060d182815481106118f357fe5b906000526020600020015490508085838151811061190d57fe5b602002602001018181525050826001600160a01b03166342a28e21826040518263ffffffff1660e01b81526004018082815260200191505060006040518083038186803b15801561195d57600080fd5b505afa92505050801561196e575060015b61199557600184838151811061198057fe5b911515602092830291909101909101526119b4565b60008483815181106119a357fe5b911515602092830291909101909101525b506001016118dc565b50919450925050509091565b60006119d6848484613eea565b611a4c846119e26136b2565b611a4785604051806060016040528060288152602001615509602891396001600160a01b038a16600090815260666020526040812090611a206136b2565b6001600160a01b03168152602081019190915260400160002054919063ffffffff61405316565b6136b6565b5060019392505050565b60d56020526000908152604090205481565b6115d08160006138a7565b606a5460ff1690565b600061155d611a896136b2565b84611a478560666000611a9a6136b2565b6001600160a01b03908116825260208083019390935260409182016000908120918c16815292529020549063ffffffff6140ea16565b6097546001600160a01b03163314611b1e576040805162461bcd60e51b815260206004820152600c60248201526b37b7363c9036b0b730b3b2b960a11b604482015290519081900360640190fd5b60cd5460ff1615158115151415611b75576040805162461bcd60e51b8152602060048201526016602482015275199b1859c81b5d5cdd08189948191a5999995c995b9d60521b604482015290519081900360640190fd5b6115d081614144565b60d15460408051828152602080840282010190915260609182918290828015611bb1578160200160208202803883390190505b509050606082604051908082528060200260200182016040528015611be0578160200160208202803883390190505b5060cf54604080516321f8a72160e01b81526822bc31b430b733b2b960b91b600482015290519293506000926001600160a01b03909216916321f8a72191602480820192602092909190829003018186803b158015611c3e57600080fd5b505afa158015611c52573d6000803e3d6000fd5b505050506040513d6020811015611c6857600080fd5b5051905060005b848110156119bd57600060d18281548110611c8657fe5b9060005260206000200154905080858381518110611ca057fe5b602090810291909101810191909152604080516301670a7b60e21b81523060048201526024810184905290516001600160a01b0386169263059c29ec9260448082019391829003018186803b158015611cf857600080fd5b505afa158015611d0c573d6000803e3d6000fd5b505050506040513d6020811015611d2257600080fd5b50518451859084908110611d3257fe5b602090810291909101015250600101611c6f565b60cf54604080516321f8a72160e01b8152680a6f2dce8d0cae8d2f60bb1b6004820152905160009283926001600160a01b03909116916321f8a72191602480820192602092909190829003018186803b158015611da257600080fd5b505afa158015611db6573d6000803e3d6000fd5b505050506040513d6020811015611dcc57600080fd5b505160408051633260803960e01b81526004810186905290516001600160a01b0390921691633260803991602480820192602092909190829003018186803b158015611e1757600080fd5b505afa158015611e2b573d6000803e3d6000fd5b505050506040513d6020811015611e4157600080fd5b505190506001600160a01b038116611e8e576040805162461bcd60e51b815260206004820152600b60248201526a696e76616c6964206b657960a81b604482015290519081900360640190fd5b6000816001600160a01b031663ec5568896040518163ffffffff1660e01b815260040160206040518083038186803b158015611ec957600080fd5b505afa158015611edd573d6000803e3d6000fd5b505050506040513d6020811015611ef357600080fd5b505190506001600160a01b038116611f42576040805162461bcd60e51b815260206004820152600d60248201526c696e76616c69642070726f787960981b604482015290519081900360640190fd5b9392505050565b6097546001600160a01b03163314611f97576040805162461bcd60e51b815260206004820152600c60248201526b37b7363c9036b0b730b3b2b960a11b604482015290519081900360640190fd5b60005b81518110156112e557611fbf828281518110611fb257fe5b6020026020010151612a42565b611fc857611fe4565b611fe4828281518110611fd757fe5b60200260200101516137a2565b600101611f9a565b6097546001600160a01b031690565b6097546001600160a01b03163314612049576040805162461bcd60e51b815260206004820152600c60248201526b37b7363c9036b0b730b3b2b960a11b604482015290519081900360640190fd5b609780546001600160a01b0319166001600160a01b038416179055805161207790609890602084019061537f565b507f6ed15082ad038474841528b5badca105106d4463e44b5d434130dfb299aa3669828260405180836001600160a01b03166001600160a01b0316815260200180602001828103825283818151815260200191508051906020019080838360005b838110156120f05781810151838201526020016120d8565b50505050905090810190601f16801561211d5780820380516001836020036101000a031916815260200191505b50935050505060405180910390a15050565b6097546001600160a01b0316331461217d576040805162461bcd60e51b815260206004820152600c60248201526b37b7363c9036b0b730b3b2b960a11b604482015290519081900360640190fd5b6115d08161418b565b60cd5460ff1681565b60d36020526000908152604090205460ff1681565b6097546001600160a01b031633146121f2576040805162461bcd60e51b815260206004820152600c60248201526b37b7363c9036b0b730b3b2b960a11b604482015290519081900360640190fd5b60005b81518110156112e55761220d828281518110611fb257fe5b1561221757612233565b61223382828151811061222657fe5b6020026020010151614393565b6001016121f5565b6001600160a01b031660009081526065602052604090205490565b60d45481565b600080612267612591565b905060006122736115de565b905061227f82826143ef565b9250505090565b60d15490565b60698054604080516020601f600260001961010060018816150201909516949094049384018190048102820181019092528281526060939092909183018282801561153e5780601f106115135761010080835404028352916020019161153e565b6060609980548060200260200160405190810160405280929190818152602001828054801561153e57602002820191906000526020600020905b81546001600160a01b03168152600190910190602001808311612327575050505050905090565b60995490565b600061155d6123616136b2565b84611a47856040518060600160405280602581526020016155c9602591396066600061238b6136b2565b6001600160a01b03908116825260208083019390935260409182016000908120918d1681529252902054919063ffffffff61405316565b600061155d6123cf6136b2565b8484613eea565b600054610100900460ff16806123ef57506123ef614425565b806123fd575060005460ff16155b6124385760405162461bcd60e51b815260040180806020018281038252602e815260200180615531602e913960400191505060405180910390fd5b600054610100900460ff16158015612463576000805460ff1961ff0019909116610100171660011790555b612488846040518060400160405280600381526020016222242360e91b81525061442b565b61249286866144e1565b60d080546001600160a01b0319166001600160a01b038a161790556124b687614144565b60cd8054610100600160a81b03191633610100021790554260ce5560cf80546001600160a01b0319166001600160a01b0385161790556124fc631cd554d160e21b61418b565b60005b82518160ff1610156125325761252a838260ff168151811061251d57fe5b602002602001015161418b565b6001016124ff565b50631cd554d160e21b60005260d36020527fb3d5fde917c404b175624c0b8cbad76efd9b74c5d464ac8a6be1870d5c675487805460ff1916600190811790915560d4558015612587576000805461ff00191690555b5050505050505050565b60d1546000908190815b818110156125dd576125d36125c660d183815481106125b657fe5b90600052602060002001546112fd565b849063ffffffff6140ea16565b925060010161259b565b509091505090565b60008060d060009054906101000a90046001600160a01b03166001600160a01b031663eda96ea96040518163ffffffff1660e01b815260040160206040518083038186803b15801561263657600080fd5b505afa15801561264a573d6000803e3d6000fd5b505050506040513d602081101561266057600080fd5b50516001600160a01b038416600090815260d560205260408120549192509061268f908363ffffffff6140ea16565b9050428110156126a45760009250505061149e565b6126b4814263ffffffff6145b316565b949350505050565b60006126c6611fec565b6001600160a01b0316336001600160a01b031614806126e8575060cd5460ff16155b806126f757506126f733612a42565b61273f576040805162461bcd60e51b81526020600482015260146024820152731bdb9b1e481b595b58995c9cc8185b1b1bddd95960621b604482015290519081900360640190fd5b33600090815260d5602052604090204290556127596145f5565b61276360006147af565b600061276d612591565b905060006127796115de565b60cf54604080516321f8a72160e01b81526822bc31b430b733b2b960b91b600482015290519293506000926001600160a01b03909216916321f8a72191602480820192602092909190829003018186803b1580156127d657600080fd5b505afa1580156127ea573d6000803e3d6000fd5b505050506040513d602081101561280057600080fd5b5051604080516306c5a00b60e21b8152336004820152631cd554d160e21b602482015290519192506001600160a01b03831691631b16802c916044808201926060929091908290030181600087803b15801561285b57600080fd5b505af115801561286f573d6000803e3d6000fd5b505050506040513d606081101561288557600080fd5b506128989050631cd554d160e21b611d46565b604080516323b872dd60e01b81523360048201523060248201526044810188905290516001600160a01b0392909216916323b872dd916064808201926020929091908290030181600087803b1580156128f057600080fd5b505af1158015612904573d6000803e3d6000fd5b505050506040513d602081101561291a57600080fd5b5051612965576040805162461bcd60e51b81526020600482015260156024820152741d1bdad95b881d1c985b9cd9995c8819985a5b1959605a1b604482015290519081900360640190fd5b600082156129945761298d84612981888663ffffffff614a4416565b9063ffffffff614a9d16565b9050612997565b50845b6129a13382614adf565b7f87fdcba84e083ebb8fd661bbafee3eb38764ec6f0cbeea8ed52deffa67bd45dc303388846129cf3361223b565b6129df8a8d63ffffffff6140ea16565b6129ef8a8963ffffffff6140ea16565b604080516001600160a01b039889168152969097166020870152858701949094526060850192909252608084015260a083015260c08201524260e08201529051908190036101000190a195945050505050565b6001600160a01b03166000908152609a6020526040902054151590565b60d0546001600160a01b031681565b60d18181548110612a7b57fe5b600091825260209091200154905081565b6097546001600160a01b03163314612ada576040805162461bcd60e51b815260206004820152600c60248201526b37b7363c9036b0b730b3b2b960a11b604482015290519081900360640190fd5b612ae381612a42565b15612aed576115d0565b6115d081614393565b612b0060016147af565b565b6097546001600160a01b03163314612b50576040805162461bcd60e51b815260206004820152600c60248201526b37b7363c9036b0b730b3b2b960a11b604482015290519081900360640190fd5b6115d081614bdd565b600090815260d26020526040902054151590565b60d26020526000908152604090205481565b60ce5481565b6001600160a01b03918216600090815260666020908152604080832093909416825291909152205490565b606060d180548060200260200160405190810160405280929190818152602001828054801561153e57602002820191906000526020600020905b815481526020019060010190808311612bea575050505050905090565b60cf54604080516321f8a72160e01b8152680a6f2dce8d0cae8d2f60bb1b6004820152905160009283926001600160a01b03909116916321f8a72191602480820192602092909190829003018186803b158015612c6357600080fd5b505afa158015612c77573d6000803e3d6000fd5b505050506040513d6020811015612c8d57600080fd5b505160408051633260803960e01b81526004810186905290516001600160a01b0390921691633260803991602480820192602092909190829003018186803b158015612cd857600080fd5b505afa158015612cec573d6000803e3d6000fd5b505050506040513d6020811015612d0257600080fd5b505190506001600160a01b038116612d1e57600091505061149e565b6000816001600160a01b031663ec5568896040518163ffffffff1660e01b815260040160206040518083038186803b158015612d5957600080fd5b505afa158015612d6d573d6000803e3d6000fd5b505050506040513d6020811015612d8357600080fd5b505190506001600160a01b038116611a4c5760009250505061149e565b60d0546040805163765808b560e11b8152815160009384936001600160a01b039091169263ecb0116a9260048083019392829003018186803b15801561162f57600080fd5b60d0546040805163eda96ea960e01b815290516000926001600160a01b03169163eda96ea9916004808301926020929190829003018186803b158015612e2a57600080fd5b505afa158015612e3e573d6000803e3d6000fd5b505050506040513d6020811015612e5457600080fd5b5051905090565b600080612e66612591565b90506000612e726115de565b60d05460408051635bd2a29360e11b8152306004820152815193945060009384936001600160a01b03169263b7a545269260248082019391829003018186803b158015612ebe57600080fd5b505afa158015612ed2573d6000803e3d6000fd5b505050506040513d6040811015612ee857600080fd5b50805160209091015160d4549193509150612f0890859085908585614d2e565b94505050505090565b6097546001600160a01b03163314612f5f576040805162461bcd60e51b815260206004820152600c60248201526b37b7363c9036b0b730b3b2b960a11b604482015290519081900360640190fd5b612f6883612b59565b612fb9576040805162461bcd60e51b815260206004820152601b60248201527f756e737570706f7274656420736f757263652063757272656e63790000000000604482015290519081900360640190fd5b612fc281612b59565b613013576040805162461bcd60e51b815260206004820181905260248201527f756e737570706f727465642064657374696e6174696f6e2063757272656e6379604482015290519081900360640190fd5b60cf54604080516321f8a72160e01b8152680a6f2dce8d0cae8d2f60bb1b600482015290516000926001600160a01b0316916321f8a721916024808301926020929190829003018186803b15801561306a57600080fd5b505afa15801561307e573d6000803e3d6000fd5b505050506040513d602081101561309457600080fd5b505160d05460408051631d68702d60e01b815290519293506000926001600160a01b03808616936330ead760938a938a938a931691631d68702d916004808301926020929190829003018186803b1580156130ee57600080fd5b505afa158015613102573d6000803e3d6000fd5b505050506040513d602081101561311857600080fd5b505160d054604080516349f7c02d60e01b815290516001600160a01b03909216916349f7c02d91600480820192602092909190829003018186803b15801561315f57600080fd5b505afa158015613173573d6000803e3d6000fd5b505050506040513d602081101561318957600080fd5b5051604080516001600160e01b031960e089901b1681526004810196909652602486019490945260448501929092526001600160a01b0316606484015260848301525160a48083019260209291908290030181600087803b1580156131ed57600080fd5b505af1158015613201573d6000803e3d6000fd5b505050506040513d602081101561321757600080fd5b505190507f2f3156bec1dba8438caa2579a04e750d9ca242f1c16d87594c77efdbede59bbe30613245611fec565b604080516001600160a01b039384168152919092166020820152808201889052606081018790526080810186905260a081018490524260c082015290519081900360e00190a15050505050565b6060806060600060d18054905090506060816040519080825280602002602001820160405280156132cd578160200160208202803883390190505b5090506060826040519080825280602002602001820160405280156132fc578160200160208202803883390190505b50905060608360405190808252806020026020018201604052801561332b578160200160208202803883390190505b5060cf54604080516321f8a72160e01b81526c45786368616e6765526174657360981b600482015290519293506000926001600160a01b03909216916321f8a72191602480820192602092909190829003018186803b15801561338d57600080fd5b505afa1580156133a1573d6000803e3d6000fd5b505050506040513d60208110156133b757600080fd5b5051905060005b8581101561353157600060d182815481106133d557fe5b906000526020600020015490506133eb81611d46565b6001600160a01b03166370a08231306040518263ffffffff1660e01b815260040180826001600160a01b03166001600160a01b0316815260200191505060206040518083038186803b15801561344057600080fd5b505afa158015613454573d6000803e3d6000fd5b505050506040513d602081101561346a57600080fd5b5051855186908490811061347a57fe5b6020026020010181815250508086838151811061349357fe5b602002602001018181525050826001600160a01b031663ac82f608826040518263ffffffff1660e01b81526004018082815260200191505060206040518083038186803b1580156134e357600080fd5b505afa1580156134f7573d6000803e3d6000fd5b505050506040513d602081101561350d57600080fd5b5051845185908490811061351d57fe5b6020908102919091010152506001016133be565b509297919650945092505050565b60988054604080516020601f600260001961010060018816150201909516949094049384018190048102820181019092528281526060939092909183018282801561153e5780601f106115135761010080835404028352916020019161153e565b60d154600082815260d260205260408120546135c390600163ffffffff6145b316565b9050600060d16135da84600163ffffffff6145b316565b815481106135e457fe5b906000526020600020015490508060d183815481106135ff57fe5b60009182526020909120015561361c82600163ffffffff6140ea16565b600082815260d26020526040808220929092558581529081205560d180548061364157fe5b600190038181906000526020600020016000905590557f241d622959843ef6d15b4517709d11e054e1c06a2733f7773837c3d2377d8a8930613681611fec565b604080516001600160a01b03938416815291909216602082015280820187905290519081900360600190a150505050565b3390565b6001600160a01b0383166136fb5760405162461bcd60e51b81526004018080602001828103825260248152602001806155a56024913960400191505060405180910390fd5b6001600160a01b0382166137405760405162461bcd60e51b815260040180806020018281038252602281526020018061547e6022913960400191505060405180910390fd5b6001600160a01b03808416600081815260666020908152604080832094871680845294825291829020859055815185815291517f8c5be1e5ebec7d5bd14f71427d1e84f3dd0314c0f7b2291e5b200ac8c7c3b9259281900390910190a3505050565b6099546001600160a01b0382166000908152609a60205260408120546137cf90600163ffffffff6145b316565b9050600060996137e684600163ffffffff6145b316565b815481106137f057fe5b600091825260209091200154609980546001600160a01b03909216925082918490811061381957fe5b600091825260209091200180546001600160a01b0319166001600160a01b039290921691909117905561384d8260016140ea565b6001600160a01b038083166000908152609a602052604080822093909355908616815290812055609980548061387f57fe5b600082815260209020810160001990810180546001600160a01b031916905501905550505050565b816138b13361223b565b10156138ee5760405162461bcd60e51b81526004018080602001828103825260238152602001806155ee6023913960400191505060405180910390fd5b60008060006138fc336125e5565b11156139815760d0546040805163765808b560e11b815281516001600160a01b039093169263ecb0116a92600480840193919291829003018186803b15801561394457600080fd5b505afa158015613958573d6000803e3d6000fd5b505050506040513d604081101561396e57600080fd5b5080516020909101519092509050613989565b506000905060015b600061399f82612981878663ffffffff614a4416565b90508015613a275760d05460408051631d68702d60e01b815290516000926001600160a01b031691631d68702d916004808301926020929190829003018186803b1580156139ec57600080fd5b505afa158015613a00573d6000803e3d6000fd5b505050506040513d6020811015613a1657600080fd5b50519050613a25338284613eea565b505b8315613a3a57613a35614dd7565b613a42565b613a426145f5565b613a4c60006147af565b6000613a56612591565b9050613a68868363ffffffff6145b316565b95506000613a8f613a776115de565b61298189670de0b6b3a764000063ffffffff614a4416565b9050613a9b3388615099565b60d1548615613cfd5760cf54604080516321f8a72160e01b81526b53797374656d53746174757360a01b600482015290516000926001600160a01b0316916321f8a721916024808301926020929190829003018186803b158015613afe57600080fd5b505afa158015613b12573d6000803e3d6000fd5b505050506040513d6020811015613b2857600080fd5b5051905060005b82811015613cf657816001600160a01b03166342a28e2160d18381548110613b5357fe5b90600052602060002001546040518263ffffffff1660e01b81526004018082815260200191505060006040518083038186803b158015613b9257600080fd5b505afa925050508015613ba3575060015b613bac57613cee565b6000613bce60d18381548110613bbe57fe5b9060005260206000200154611d46565b604080516370a0823160e01b815230600482015290519192506000916001600160a01b038416916370a08231916024808301926020929190829003018186803b158015613c1a57600080fd5b505afa158015613c2e573d6000803e3d6000fd5b505050506040513d6020811015613c4457600080fd5b505190506000613c66670de0b6b3a7640000612981848a63ffffffff614a4416565b90508015613cea576040805163a9059cbb60e01b81523360048201526024810183905290516001600160a01b0385169163a9059cbb9160448083019260209291908290030181600087803b158015613cbd57600080fd5b505af1158015613cd1573d6000803e3d6000fd5b505050506040513d6020811015613ce757600080fd5b50505b5050505b600101613b2f565b5050613e43565b60005b81811015613e41576000613d1a60d18381548110613bbe57fe5b604080516370a0823160e01b815230600482015290519192506000916001600160a01b038416916370a08231916024808301926020929190829003018186803b158015613d6657600080fd5b505afa158015613d7a573d6000803e3d6000fd5b505050506040513d6020811015613d9057600080fd5b505190506000613db2670de0b6b3a7640000612981848963ffffffff614a4416565b90508015613e36576040805163a9059cbb60e01b81523360048201526024810183905290516001600160a01b0385169163a9059cbb9160448083019260209291908290030181600087803b158015613e0957600080fd5b505af1158015613e1d573d6000803e3d6000fd5b505050506040513d6020811015613e3357600080fd5b50505b505050600101613d00565b505b6000613e55838563ffffffff614a4416565b90507f79d44cc8beeed36226f14818b2ecaca7ef252bcd56c9ae35f5a86869dbdefb973033838c613e853361223b565b613e8d612591565b613e956115de565b604080516001600160a01b039889168152969097166020870152858701949094526060850192909252608084015260a083015260c08201524260e08201529051908190036101000190a1505050505050505050565b6001600160a01b038316613f2f5760405162461bcd60e51b81526004018080602001828103825260258152602001806155806025913960400191505060405180910390fd5b6001600160a01b038216613f745760405162461bcd60e51b81526004018080602001828103825260238152602001806154186023913960400191505060405180910390fd5b613f7f8383836144dc565b613fc2816040518060600160405280602681526020016154c2602691396001600160a01b038616600090815260656020526040902054919063ffffffff61405316565b6001600160a01b038085166000908152606560205260408082209390935590841681522054613ff7908263ffffffff6140ea16565b6001600160a01b0380841660008181526065602090815260409182902094909455805185815290519193928716927fddf252ad1be2c89b69c2b068fc378daa952ba7f163c4a11628f55a4df523b3ef92918290030190a3505050565b600081848411156140e25760405162461bcd60e51b81526004018080602001828103825283818151815260200191508051906020019080838360005b838110156140a757818101518382015260200161408f565b50505050905090810190601f1680156140d45780820380516001836020036101000a031916815260200191505b509250505060405180910390fd5b505050900390565b600082820183811015611f42576040805162461bcd60e51b815260206004820152601b60248201527f536166654d6174683a206164646974696f6e206f766572666c6f770000000000604482015290519081900360640190fd5b60cd805482151560ff19909116811790915560408051918252517f8d75e9ede4188432084b863d70b3416010c97547dfeb4fc17734d2e997ee0f399181900360200190a150565b60d060009054906101000a90046001600160a01b03166001600160a01b031663aa12ae4d6040518163ffffffff1660e01b815260040160206040518083038186803b1580156141d957600080fd5b505afa1580156141ed573d6000803e3d6000fd5b505050506040513d602081101561420357600080fd5b505160d15410614253576040805162461bcd60e51b81526020600482015260166024820152751b585e1a5b5d5b48185cdcd95d1cc81c995858da195960521b604482015290519081900360640190fd5b61425c81612b59565b156142ae576040805162461bcd60e51b815260206004820152601760248201527f617373657420616c726561647920737570706f72746564000000000000000000604482015290519081900360640190fd5b6142b781612c07565b15156001146142fc576040805162461bcd60e51b815260206004820152600c60248201526b1b9bdd08185b88185cdcd95d60a21b604482015290519081900360640190fd5b60d180546001810182557f695fb3134ad82c3b8022bc5464edd0bcc9424ef672b52245dcb6ab2374327ce30182905554600082815260d260205260409020557f4c719ca79dbb56150643ac79f2fbfa02370838ed0d116fc28b9703f5a071c4e230614365611fec565b604080516001600160a01b03938416815291909216602082015280820184905290519081900360600190a150565b609980546001810182557f72a152ddfb8e864297c917af52ea6c1c68aead0fee1a62673fcc7e0c94979d000180546001600160a01b039093166001600160a01b031990931683179055546000918252609a602052604090912055565b60008115806143fc575082155b1561440957506000611561565b611f428261298185670de0b6b3a764000063ffffffff614a4416565b303b1590565b600054610100900460ff16806144445750614444614425565b80614452575060005460ff16155b61448d5760405162461bcd60e51b815260040180806020018281038252602e815260200180615531602e913960400191505060405180910390fd5b600054610100900460ff161580156144b8576000805460ff1961ff0019909116610100171660011790555b6144c06151a1565b6144ca8383615242565b80156144dc576000805461ff00191690555b505050565b600054610100900460ff16806144fa57506144fa614425565b80614508575060005460ff16155b6145435760405162461bcd60e51b815260040180806020018281038252602e815260200180615531602e913960400191505060405180910390fd5b600054610100900460ff1615801561456e576000805460ff1961ff0019909116610100171660011790555b609780546001600160a01b0319166001600160a01b038516179055815161459c90609890602085019061537f565b5080156144dc576000805461ff0019169055505050565b6000611f4283836040518060400160405280601e81526020017f536166654d6174683a207375627472616374696f6e206f766572666c6f770000815250614053565b60cf54604080516321f8a72160e01b8152680a6f2dce8d0cae8d2f60bb1b600482015290516000926001600160a01b0316916321f8a721916024808301926020929190829003018186803b15801561464c57600080fd5b505afa158015614660573d6000803e3d6000fd5b505050506040513d602081101561467657600080fd5b505160d15490915060005b818110156144dc57600061469b60d18381548110613bbe57fe5b604080516370a0823160e01b815230600482015290519192506000916001600160a01b038416916370a08231916024808301926020929190829003018186803b1580156146e757600080fd5b505afa1580156146fb573d6000803e3d6000fd5b505050506040513d602081101561471157600080fd5b5051905080156147a557846001600160a01b031663987757dd60d1858154811061473757fe5b90600052602060002001546040518263ffffffff1660e01b815260040180828152602001915050606060405180830381600087803b15801561477857600080fd5b505af115801561478c573d6000803e3d6000fd5b505050506040513d60608110156147a257600080fd5b50505b5050600101614681565b80156147bd576147bd6145f5565b60006147c7612591565b905060006147d36115de565b60d05460408051635bd2a29360e11b8152306004820152815193945060009384936001600160a01b03169263b7a545269260248082019391829003018186803b15801561481f57600080fd5b505afa158015614833573d6000803e3d6000fd5b505050506040513d604081101561484957600080fd5b50805160209091015160d454919350915060009061486c90869086908686614d2e565b90508061487d5750505050506115d0565b60d05460408051631d68702d60e01b815290516000926001600160a01b031691631d68702d916004808301926020929190829003018186803b1580156148c257600080fd5b505afa1580156148d6573d6000803e3d6000fd5b505050506040513d60208110156148ec57600080fd5b505160d0546040805163272b69b960e21b8152815193945060009384936001600160a01b031692639cada6e49260048082019391829003018186803b15801561493457600080fd5b505afa158015614948573d6000803e3d6000fd5b505050506040513d604081101561495e57600080fd5b5080516020909101519092509050600061498282612981878663ffffffff614a4416565b90506000614996868363ffffffff6145b316565b905081156149a8576149a88583614adf565b80156149bf576149bf6149b9611fec565b82614adf565b6149c98a8a6143ef565b60d4557f755a8059d66d8d243bc9f6913f429a811f154599d0538bb0b6a2ac23f23d2ccd306149f6611fec565b60d454604080516001600160a01b0394851681529290931660208301528183018a9052606082018690526080820185905260a082015290519081900360c00190a15050505050505050505050565b600082614a5357506000611561565b82820282848281614a6057fe5b0414611f425760405162461bcd60e51b81526004018080602001828103825260218152602001806154e86021913960400191505060405180910390fd5b6000611f4283836040518060400160405280601a81526020017f536166654d6174683a206469766973696f6e206279207a65726f00000000000081525061531a565b6001600160a01b038216614b3a576040805162461bcd60e51b815260206004820152601f60248201527f45524332303a206d696e7420746f20746865207a65726f206164647265737300604482015290519081900360640190fd5b614b46600083836144dc565b606754614b59908263ffffffff6140ea16565b6067556001600160a01b038216600090815260656020526040902054614b85908263ffffffff6140ea16565b6001600160a01b03831660008181526065602090815260408083209490945583518581529351929391927fddf252ad1be2c89b69c2b068fc378daa952ba7f163c4a11628f55a4df523b3ef9281900390910190a35050565b60d0546040805163011adcb160e21b81523060048201526024810184905290516001600160a01b039092169163046b72c49160448082019260009290919082900301818387803b158015614c3057600080fd5b505af1158015614c44573d6000803e3d6000fd5b505060d05460408051635bd2a29360e11b81523060048201528151600095508594506001600160a01b039093169263b7a5452692602480840193919291829003018186803b158015614c9557600080fd5b505afa158015614ca9573d6000803e3d6000fd5b505050506040513d6040811015614cbf57600080fd5b50805160209091015190925090507f1780c04ddc6f0b32d866c7a3d7583f53515ef49ed2126af868f804f49160126630614cf7611fec565b604080516001600160a01b0393841681529190921660208201528082018590526060810184905290519081900360800190a1505050565b6000841580614d3b575085155b15614d4857506000614dce565b6000614d668661298189670de0b6b3a764000063ffffffff614a4416565b90506000614d8286670de0b6b3a764000063ffffffff614a4416565b9050808211614d9657600092505050614dce565b6000614dc8670de0b6b3a764000061298187818a614dbc8e818b8b63ffffffff6145b316565b9063ffffffff614a4416565b93505050505b95945050505050565b60cf54604080516321f8a72160e01b8152680a6f2dce8d0cae8d2f60bb1b600482015290516000926001600160a01b0316916321f8a721916024808301926020929190829003018186803b158015614e2e57600080fd5b505afa158015614e42573d6000803e3d6000fd5b505050506040513d6020811015614e5857600080fd5b505160cf54604080516321f8a72160e01b81526b53797374656d53746174757360a01b600482015290519293506000926001600160a01b03909216916321f8a72191602480820192602092909190829003018186803b158015614eba57600080fd5b505afa158015614ece573d6000803e3d6000fd5b505050506040513d6020811015614ee457600080fd5b505160d15490915060005b8181101561509357826001600160a01b03166342a28e2160d18381548110614f1357fe5b90600052602060002001546040518263ffffffff1660e01b81526004018082815260200191505060006040518083038186803b158015614f5257600080fd5b505afa925050508015614f63575060015b614f6c5761508b565b6000614f7e60d18381548110613bbe57fe5b604080516370a0823160e01b815230600482015290519192506000916001600160a01b038416916370a08231916024808301926020929190829003018186803b158015614fca57600080fd5b505afa158015614fde573d6000803e3d6000fd5b505050506040513d6020811015614ff457600080fd5b50519050801561508857856001600160a01b031663987757dd60d1858154811061501a57fe5b90600052602060002001546040518263ffffffff1660e01b815260040180828152602001915050606060405180830381600087803b15801561505b57600080fd5b505af115801561506f573d6000803e3d6000fd5b505050506040513d606081101561508557600080fd5b50505b50505b600101614eef565b50505050565b6001600160a01b0382166150de5760405162461bcd60e51b815260040180806020018281038252602181526020018061555f6021913960400191505060405180910390fd5b6150ea826000836144dc565b61512d8160405180606001604052806022815260200161545c602291396001600160a01b038516600090815260656020526040902054919063ffffffff61405316565b6001600160a01b038316600090815260656020526040902055606754615159908263ffffffff6145b316565b6067556040805182815290516000916001600160a01b038516917fddf252ad1be2c89b69c2b068fc378daa952ba7f163c4a11628f55a4df523b3ef9181900360200190a35050565b600054610100900460ff16806151ba57506151ba614425565b806151c8575060005460ff16155b6152035760405162461bcd60e51b815260040180806020018281038252602e815260200180615531602e913960400191505060405180910390fd5b600054610100900460ff1615801561522e576000805460ff1961ff0019909116610100171660011790555b80156115d0576000805461ff001916905550565b600054610100900460ff168061525b575061525b614425565b80615269575060005460ff16155b6152a45760405162461bcd60e51b815260040180806020018281038252602e815260200180615531602e913960400191505060405180910390fd5b600054610100900460ff161580156152cf576000805460ff1961ff0019909116610100171660011790555b82516152e290606890602086019061537f565b5081516152f690606990602085019061537f565b50606a805460ff1916601217905580156144dc576000805461ff0019169055505050565b600081836153695760405162461bcd60e51b81526020600482018181528351602484015283519092839260449091019190850190808383600083156140a757818101518382015260200161408f565b50600083858161537557fe5b0495945050505050565b828054600181600116156101000203166002900490600052602060002090601f016020900481019282601f106153c057805160ff19168380011785556153ed565b828001600101855582156153ed579182015b828111156153ed5782518255916020019190600101906153d2565b506153f99291506153fd565b5090565b61154691905b808211156153f9576000815560010161540356fe45524332303a207472616e7366657220746f20746865207a65726f20616464726573736e6f6e2d656d7074792061737365742063616e6e6f742062652072656d6f76656445524332303a206275726e20616d6f756e7420657863656564732062616c616e636545524332303a20617070726f766520746f20746865207a65726f206164647265737370657273697374656e74206173736574732063616e27742062652072656d6f76656445524332303a207472616e7366657220616d6f756e7420657863656564732062616c616e6365536166654d6174683a206d756c7469706c69636174696f6e206f766572666c6f7745524332303a207472616e7366657220616d6f756e74206578636565647320616c6c6f77616e6365436f6e747261637420696e7374616e63652068617320616c7265616479206265656e20696e697469616c697a656445524332303a206275726e2066726f6d20746865207a65726f206164647265737345524332303a207472616e736665722066726f6d20746865207a65726f206164647265737345524332303a20617070726f76652066726f6d20746865207a65726f206164647265737345524332303a2064656372656173656420616c6c6f77616e63652062656c6f77207a65726f696e73756666696369656e742062616c616e6365206f662066756e6420746f6b656e73a2646970667358221220a9bd243b4f819b8cd8385c01915eee6924f75f7261ac0a323417cf454415399464736f6c63430006020033",
  "source": "pragma solidity ^0.6.2;\n\nimport \"./ISynthetix.sol\";\nimport \"./IExchanger.sol\";\nimport \"./ISynth.sol\";\nimport \"./IExchangeRates.sol\";\nimport \"./IAddressResolver.sol\";\nimport \"./ISystemStatus.sol\";\nimport \"./Managed.sol\";\nimport \"./IHasDaoInfo.sol\";\nimport \"./IHasFeeInfo.sol\";\nimport \"./IHasAssetInfo.sol\";\nimport \"@openzeppelin/contracts-ethereum-package/contracts/token/ERC20/IERC20.sol\";\nimport \"@openzeppelin/contracts-ethereum-package/contracts/math/SafeMath.sol\";\n\nimport \"@openzeppelin/contracts-ethereum-package/contracts/Initializable.sol\";\nimport \"@openzeppelin/contracts-ethereum-package/contracts/token/ERC20/ERC20.sol\";\n\ncontract DHedge is Initializable, ERC20UpgradeSafe, Managed {\n    using SafeMath for uint256;\n\n    bytes32 constant private _EXCHANGE_RATES_KEY = \"ExchangeRates\";\n    bytes32 constant private _SYNTHETIX_KEY = \"Synthetix\";\n    bytes32 constant private _EXCHANGER_KEY = \"Exchanger\";\n    bytes32 constant private _SYSTEM_STATUS_KEY = \"SystemStatus\";\n    bytes32 constant private _SUSD_KEY = \"sUSD\";\n\n    event Deposit(\n        address fundAddress,\n        address investor,\n        uint256 valueDeposited,\n        uint256 fundTokensReceived,\n        uint256 totalInvestorFundTokens,\n        uint256 fundValue,\n        uint256 totalSupply,\n        uint256 time\n    );\n    event Withdrawal(\n        address fundAddress,\n        address investor,\n        uint256 valueWithdrawn,\n        uint256 fundTokensWithdrawn,\n        uint256 totalInvestorFundTokens,\n        uint256 fundValue,\n        uint256 totalSupply,\n        uint256 time\n    );\n    event Exchange(\n        address fundAddress,\n        address manager,\n        bytes32 sourceKey,\n        uint256 sourceAmount,\n        bytes32 destinationKey,\n        uint256 destinationAmount,\n        uint256 time\n    );\n    event AssetAdded(address fundAddress, address manager, bytes32 assetKey);\n    event AssetRemoved(address fundAddress, address manager, bytes32 assetKey);\n\n    event PoolPrivacyUpdated(bool isPoolPrivate);\n\n    event ManagerFeeMinted(\n        address pool,\n        address manager,\n        uint256 available,\n        uint256 daoFee,\n        uint256 managerFee,\n        uint256 tokenPriceAtLastFeeMint\n    );\n\n    event ManagerFeeSet(\n        address fundAddress,\n        address manager,\n        uint256 numerator,\n        uint256 denominator\n    );\n\n    bool public privatePool;\n    address public creator;\n\n    uint256 public creationTime;\n\n    IAddressResolver public addressResolver;\n\n    address public factory;\n\n    bytes32[] public supportedAssets;\n    mapping(bytes32 => uint256) public assetPosition; // maps the asset to its 1-based position\n\n    mapping(bytes32 => bool) public persistentAsset;\n\n    // Manager fees\n    uint256 public tokenPriceAtLastFeeMint;\n\n    mapping(address => uint256) public lastDeposit;\n\n    modifier onlyPrivate() {\n        require(\n            msg.sender == manager() ||\n                !privatePool ||\n                isMemberAllowed(msg.sender),\n            \"only members allowed\"\n        );\n        _;\n    }\n\n    function initialize(\n        address _factory,\n        bool _privatePool,\n        address _manager,\n        string memory _managerName,\n        string memory _fundName,\n        IAddressResolver _addressResolver,\n        bytes32[] memory _supportedAssets\n    ) public initializer {\n        ERC20UpgradeSafe.__ERC20_init(_fundName, \"DHF\");\n        Managed.initialize(_manager, _managerName);\n\n        factory = _factory;\n        _setPoolPrivacy(_privatePool);\n        creator = msg.sender;\n        creationTime = block.timestamp;\n        addressResolver = _addressResolver;\n\n        _addToSupportedAssets(_SUSD_KEY);\n\n        for(uint8 i = 0; i < _supportedAssets.length; i++) {\n            _addToSupportedAssets(_supportedAssets[i]);\n        }\n\n        // Set persistent assets\n        persistentAsset[_SUSD_KEY] = true;\n\n        tokenPriceAtLastFeeMint = 1;\n    }\n\n    function setPoolPrivate(bool _privatePool) public onlyManager {\n        require(privatePool != _privatePool, \"flag must be different\");\n\n        _setPoolPrivacy(_privatePool);\n    }\n\n    function _setPoolPrivacy(bool _privacy) internal {\n        privatePool = _privacy;\n\n        emit PoolPrivacyUpdated(_privacy);\n    }\n\n    function getAssetProxy(bytes32 key) public view returns (address) {\n        address synth = ISynthetix(addressResolver.getAddress(_SYNTHETIX_KEY))\n            .synths(key);\n        require(synth != address(0), \"invalid key\");\n        address proxy = ISynth(synth).proxy();\n        require(proxy != address(0), \"invalid proxy\");\n        return proxy;\n    }\n\n    function isAssetSupported(bytes32 key) public view returns (bool) {\n        return assetPosition[key] != 0;\n    }\n\n    function validateAsset(bytes32 key) public view returns (bool) {\n        address synth = ISynthetix(addressResolver.getAddress(_SYNTHETIX_KEY))\n            .synths(key);\n\n        if (synth == address(0))\n            return false;\n\n        address proxy = ISynth(synth).proxy();\n\n        if (proxy == address(0))\n            return false;\n\n        return true;\n    }\n\n    function addToSupportedAssets(bytes32 key) public onlyManager {\n        _addToSupportedAssets(key);\n    }\n\n    function removeFromSupportedAssets(bytes32 key) public onlyManager {\n        require(isAssetSupported(key), \"asset not supported\");\n\n        require(!persistentAsset[key], \"persistent assets can't be removed\");\n\n        ISynthetix sx = ISynthetix(addressResolver.getAddress(_SYNTHETIX_KEY));\n        sx.settle(key);\n\n        require(\n            IERC20(getAssetProxy(key)).balanceOf(address(this)) == 0,\n            \"non-empty asset cannot be removed\"\n        );\n\n        require(key != _SUSD_KEY, \"sUSD can't be removed\");\n\n        _removeFromSupportedAssets(key);\n    }\n\n    function numberOfSupportedAssets() public view returns (uint256) {\n        return supportedAssets.length;\n    }\n\n    // Unsafe internal method that assumes we are not adding a duplicate\n    function _addToSupportedAssets(bytes32 key) internal {\n        require(supportedAssets.length < IHasAssetInfo(factory).getMaximumSupportedAssetCount(), \"maximum assets reached\");\n        require(!isAssetSupported(key), \"asset already supported\");\n        require(validateAsset(key) == true, \"not an asset\");\n\n        supportedAssets.push(key);\n        assetPosition[key] = supportedAssets.length;\n\n        emit AssetAdded(address(this), manager(), key);\n    }\n\n    // Unsafe internal method that assumes we are removing an element that exists\n    function _removeFromSupportedAssets(bytes32 key) internal {\n        uint256 length = supportedAssets.length;\n        uint256 index = assetPosition[key].sub(1); // adjusting the index because the map stores 1-based\n\n        bytes32 lastAsset = supportedAssets[length.sub(1)];\n\n        // overwrite the asset to be removed with the last supported asset\n        supportedAssets[index] = lastAsset;\n        assetPosition[lastAsset] = index.add(1); // adjusting the index to be 1-based\n        assetPosition[key] = 0; // update the map\n\n        // delete the last supported asset and resize the array\n        supportedAssets.pop();\n\n        emit AssetRemoved(address(this), manager(), key);\n    }\n\n    function exchange(\n        bytes32 sourceKey,\n        uint256 sourceAmount,\n        bytes32 destinationKey\n    ) public onlyManager {\n        require(isAssetSupported(sourceKey), \"unsupported source currency\");\n        require(\n            isAssetSupported(destinationKey),\n            \"unsupported destination currency\"\n        );\n\n        ISynthetix sx = ISynthetix(addressResolver.getAddress(_SYNTHETIX_KEY));\n\n        uint256 destinationAmount = sx.exchangeWithTracking(\n            sourceKey,\n            sourceAmount,\n            destinationKey,\n            IHasDaoInfo(factory).getDaoAddress(),\n            IHasFeeInfo(factory).getTrackingCode()\n        );\n\n        emit Exchange(\n            address(this),\n            manager(),\n            sourceKey,\n            sourceAmount,\n            destinationKey,\n            destinationAmount,\n            block.timestamp\n        );\n    }\n\n    function totalFundValue() public virtual view returns (uint256) {\n        uint256 total = 0;\n        uint256 assetCount = supportedAssets.length;\n\n        for (uint256 i = 0; i < assetCount; i++) {\n            total = total.add(assetValue(supportedAssets[i]));\n        }\n        return total;\n    }\n\n    function assetValue(bytes32 key) public view returns (uint256) {\n        return\n            IExchangeRates(addressResolver.getAddress(_EXCHANGE_RATES_KEY))\n                .effectiveValue(\n                key,\n                IERC20(getAssetProxy(key)).balanceOf(address(this)),\n                _SUSD_KEY\n            );\n    }\n\n    function deposit(uint256 _susdAmount) public onlyPrivate returns (uint256) {\n        lastDeposit[msg.sender] = block.timestamp;\n\n        //we need to settle all the assets before determining the total fund value\n        _settleAll();\n\n        _mintManagerFee(false);\n\n        uint256 fundValue = totalFundValue();\n        uint256 totalSupplyBefore = totalSupply();\n\n        IExchanger sx = IExchanger(addressResolver.getAddress(_EXCHANGER_KEY));\n        sx.settle(msg.sender, _SUSD_KEY);\n\n        require(\n            IERC20(getAssetProxy(_SUSD_KEY)).transferFrom(\n                msg.sender,\n                address(this),\n                _susdAmount\n            ),\n            \"token transfer failed\"\n        );\n\n        uint256 liquidityMinted;\n        if (totalSupplyBefore > 0) {\n            //total balance converted to susd that this contract holds\n            //need to calculate total value of synths in this contract\n            liquidityMinted = _susdAmount.mul(totalSupplyBefore).div(fundValue);\n        } else {\n            liquidityMinted = _susdAmount;\n        }\n\n        _mint(msg.sender, liquidityMinted);\n\n        emit Deposit(\n            address(this),\n            msg.sender,\n            _susdAmount,\n            liquidityMinted,\n            balanceOf(msg.sender),\n            fundValue.add(_susdAmount),\n            totalSupplyBefore.add(liquidityMinted),\n            block.timestamp\n        );\n\n        return liquidityMinted;\n    }\n\n    function _settleAll() internal {\n        ISynthetix sx = ISynthetix(addressResolver.getAddress(_SYNTHETIX_KEY));\n\n        uint256 assetCount = supportedAssets.length;\n\n        for (uint256 i = 0; i < assetCount; i++) {\n\n            address proxy = getAssetProxy(supportedAssets[i]);\n            uint256 totalAssetBalance = IERC20(proxy).balanceOf(address(this));\n\n            if (totalAssetBalance > 0)\n                sx.settle(supportedAssets[i]);\n\n        }\n    }\n\n    function _settleNotSuspended() internal {\n        ISynthetix sx = ISynthetix(addressResolver.getAddress(_SYNTHETIX_KEY));\n        ISystemStatus status = ISystemStatus(addressResolver.getAddress(_SYSTEM_STATUS_KEY));\n\n        uint256 assetCount = supportedAssets.length;\n\n        for (uint256 i = 0; i < assetCount; i++) {\n            try status.requireSynthActive(supportedAssets[i]) {\n\n                address proxy = getAssetProxy(supportedAssets[i]);\n                uint256 totalAssetBalance = IERC20(proxy).balanceOf(address(this));\n\n                if (totalAssetBalance > 0)\n                    sx.settle(supportedAssets[i]);\n\n            } catch {\n                continue;\n            }\n        }\n    }\n\n    function withdraw(uint256 _fundTokenAmount) public virtual {\n        _withdraw(_fundTokenAmount, false);\n    }\n\n    function forfeitSuspendedSynthsAndWithdraw(uint256 _fundTokenAmount) public virtual {\n        _withdraw(_fundTokenAmount, true);\n    }\n\n    function _withdraw(uint256 _fundTokenAmount, bool _forfeitSuspendedSynths) internal {\n        require(\n            balanceOf(msg.sender) >= _fundTokenAmount,\n            \"insufficient balance of fund tokens\"\n        );\n\n        //calculate the exit fee and transfer to the DAO in pool tokens\n        uint256 exitFeeNumerator;\n        uint256 exitFeeDenominator;\n\n        if (getExitFeeRemainingCooldown(msg.sender) > 0) {\n            (exitFeeNumerator, exitFeeDenominator) = IHasFeeInfo(factory).getExitFee();\n        } else {\n            exitFeeNumerator = 0;\n            exitFeeDenominator = 1;\n        }\n\n        uint256 daoExitFee = _fundTokenAmount.mul(exitFeeNumerator).div(exitFeeDenominator);\n\n        if (daoExitFee > 0) {\n            address daoAddress = IHasDaoInfo(factory).getDaoAddress();\n\n            _transfer(msg.sender, daoAddress, daoExitFee);\n        }\n\n        //we need to settle all the assets before determining the total fund value\n        if(_forfeitSuspendedSynths){\n            _settleNotSuspended();\n        } else {\n            _settleAll();\n        }\n\n        _mintManagerFee(false);\n\n        uint256 fundValue = totalFundValue();\n\n        //calculate the proportion\n        _fundTokenAmount = _fundTokenAmount.sub(daoExitFee);\n        uint256 portion = _fundTokenAmount.mul(10**18).div(totalSupply());\n\n        //first return funded tokens\n        _burn(msg.sender, _fundTokenAmount);\n\n        uint256 assetCount = supportedAssets.length;\n\n        if(_forfeitSuspendedSynths){\n            ISystemStatus status = ISystemStatus(addressResolver.getAddress(_SYSTEM_STATUS_KEY));\n            for (uint256 i = 0; i < assetCount; i++) {\n                try status.requireSynthActive(supportedAssets[i]) {\n\n                    address proxy = getAssetProxy(supportedAssets[i]);\n                    uint256 totalAssetBalance = IERC20(proxy).balanceOf(address(this));\n                    uint256 portionOfAssetBalance = totalAssetBalance.mul(portion).div(10**18);\n\n                    if (portionOfAssetBalance > 0) {\n                        IERC20(proxy).transfer(msg.sender, portionOfAssetBalance);\n                    }\n\n                } catch {\n                    continue;\n                }\n            }\n        } else {\n            for (uint256 i = 0; i < assetCount; i++) {\n                address proxy = getAssetProxy(supportedAssets[i]);\n                uint256 totalAssetBalance = IERC20(proxy).balanceOf(address(this));\n                uint256 portionOfAssetBalance = totalAssetBalance.mul(portion).div(10**18);\n\n                if (portionOfAssetBalance > 0) {\n                    IERC20(proxy).transfer(msg.sender, portionOfAssetBalance);\n                }\n            }\n        }\n\n        uint256 valueWithdrawn = portion.mul(fundValue);\n\n        emit Withdrawal(\n            address(this),\n            msg.sender,\n            valueWithdrawn,\n            _fundTokenAmount,\n            balanceOf(msg.sender),\n            totalFundValue(),\n            totalSupply(),\n            block.timestamp\n        );\n    }\n\n    function getFundSummary()\n        public\n        view\n        returns (\n            string memory,\n            uint256,\n            uint256,\n            address,\n            string memory,\n            uint256,\n            bool,\n            uint256,\n            uint256,\n            uint256,\n            uint256\n        )\n    {\n\n        uint256 managerFeeNumerator;\n        uint256 managerFeeDenominator;\n        (managerFeeNumerator, managerFeeDenominator) = IHasFeeInfo(factory).getPoolManagerFee(address(this));\n\n        uint256 exitFeeNumerator;\n        uint256 exitFeeDenominator;\n        (exitFeeNumerator, exitFeeDenominator) = IHasFeeInfo(factory).getExitFee();\n\n        return (\n            name(),\n            totalSupply(),\n            totalFundValue(),\n            manager(),\n            managerName(),\n            creationTime,\n            privatePool,\n            managerFeeNumerator,\n            managerFeeDenominator,\n            exitFeeNumerator,\n            exitFeeDenominator\n        );\n    }\n\n    function getSupportedAssets() public view returns (bytes32[] memory) {\n        return supportedAssets;\n    }\n\n    function getFundComposition()\n        public\n        view\n        returns (\n            bytes32[] memory,\n            uint256[] memory,\n            uint256[] memory\n        )\n    {\n        uint256 assetCount = supportedAssets.length;\n\n        bytes32[] memory assets = new bytes32[](assetCount);\n        uint256[] memory balances = new uint256[](assetCount);\n        uint256[] memory rates = new uint256[](assetCount);\n\n        IExchangeRates exchangeRates = IExchangeRates(\n            addressResolver.getAddress(_EXCHANGE_RATES_KEY)\n        );\n        for (uint256 i = 0; i < assetCount; i++) {\n            bytes32 asset = supportedAssets[i];\n            balances[i] = IERC20(getAssetProxy(asset)).balanceOf(address(this));\n            assets[i] = asset;\n            rates[i] = exchangeRates.rateForCurrency(asset);\n        }\n        return (assets, balances, rates);\n    }\n\n    function getWaitingPeriods()\n        public\n        view\n        returns (\n            bytes32[] memory,\n            uint256[] memory\n        )\n    {\n        uint256 assetCount = supportedAssets.length;\n\n        bytes32[] memory assets = new bytes32[](assetCount);\n        uint256[] memory periods = new uint256[](assetCount);\n\n        IExchanger exchanger = IExchanger(addressResolver.getAddress(_EXCHANGER_KEY));\n\n        for (uint256 i = 0; i < assetCount; i++) {\n            bytes32 asset = supportedAssets[i];\n            assets[i] = asset;\n            periods[i] = exchanger.maxSecsLeftInWaitingPeriod(address(this), asset);\n        }\n\n        return (assets, periods);\n    }\n\n    function getSuspendedAssets() public view returns (bytes32[] memory, bool[] memory) {\n        \n        uint256 assetCount = supportedAssets.length;\n\n        bytes32[] memory assets = new bytes32[](assetCount);\n        bool[] memory suspended = new bool[](assetCount);\n\n        ISystemStatus status = ISystemStatus(addressResolver.getAddress(_SYSTEM_STATUS_KEY));\n\n        for (uint256 i = 0; i < assetCount; i++) {\n            bytes32 asset = supportedAssets[i];\n\n            assets[i] = asset;\n\n            try status.requireSynthActive(asset) {\n                suspended[i] = false;\n            } catch {\n                suspended[i] = true;\n            }\n        }\n\n        return (assets, suspended);\n\n    }\n\n    // MANAGER FEES\n\n    function tokenPrice() public view returns (uint256) {\n        uint256 fundValue = totalFundValue();\n        uint256 tokenSupply = totalSupply();\n\n        return _tokenPrice(fundValue, tokenSupply);\n    }\n\n    function _tokenPrice(uint256 _fundValue, uint256 _tokenSupply)\n        internal\n        pure\n        returns (uint256)\n    {\n        if (_tokenSupply == 0 || _fundValue == 0) return 0;\n\n        return _fundValue.mul(10**18).div(_tokenSupply);\n    }\n\n    function availableManagerFee() public view returns (uint256) {\n        uint256 fundValue = totalFundValue();\n        uint256 tokenSupply = totalSupply();\n\n        uint256 managerFeeNumerator;\n        uint256 managerFeeDenominator;\n        (managerFeeNumerator, managerFeeDenominator) = IHasFeeInfo(factory).getPoolManagerFee(address(this));\n\n        return\n            _availableManagerFee(\n                fundValue,\n                tokenSupply,\n                tokenPriceAtLastFeeMint,\n                managerFeeNumerator,\n                managerFeeDenominator\n            );\n    }\n\n    function _availableManagerFee(\n        uint256 _fundValue,\n        uint256 _tokenSupply,\n        uint256 _lastFeeMintPrice,\n        uint256 _feeNumerator,\n        uint256 _feeDenominator\n    ) internal pure returns (uint256) {\n        if (_tokenSupply == 0 || _fundValue == 0) return 0;\n\n        uint256 tokenPriceExtended = _fundValue.mul(10**18).div(_tokenSupply);\n        uint256 lastFeeMintPriceExtended = _lastFeeMintPrice.mul(10**18);\n\n        if (tokenPriceExtended <= lastFeeMintPriceExtended) return 0;\n\n        uint256 available = tokenPriceExtended\n            .sub(lastFeeMintPriceExtended)\n            .mul(_tokenSupply)\n            .mul(_feeNumerator)\n            .div(_feeDenominator)\n            .div(10**18);\n\n        return available;\n    }\n\n    function mintManagerFee() public {\n        _mintManagerFee(true);\n    }\n\n    function _mintManagerFee(bool settle) internal {\n        //we need to settle all the assets before minting the manager fee\n        if (settle)\n            _settleAll();\n\n        uint256 fundValue = totalFundValue();\n        uint256 tokenSupply = totalSupply();\n\n        uint256 managerFeeNumerator;\n        uint256 managerFeeDenominator;\n        (managerFeeNumerator, managerFeeDenominator) = IHasFeeInfo(factory).getPoolManagerFee(address(this));\n\n        uint256 available = _availableManagerFee(\n            fundValue,\n            tokenSupply,\n            tokenPriceAtLastFeeMint,\n            managerFeeNumerator,\n            managerFeeDenominator\n        );\n\n        if (available == 0)\n            return;\n\n        address daoAddress = IHasDaoInfo(factory).getDaoAddress();\n        uint256 daoFeeNumerator;\n        uint256 daoFeeDenominator;\n\n        (daoFeeNumerator, daoFeeDenominator) = IHasDaoInfo(factory).getDaoFee();\n\n        uint256 daoFee = available.mul(daoFeeNumerator).div(daoFeeDenominator);\n        uint256 managerFee = available.sub(daoFee);\n\n        if (daoFee > 0) _mint(daoAddress, daoFee);\n\n        if (managerFee > 0) _mint(manager(), managerFee);\n\n        tokenPriceAtLastFeeMint = _tokenPrice(fundValue, tokenSupply);\n\n        emit ManagerFeeMinted(\n            address(this),\n            manager(),\n            available,\n            daoFee,\n            managerFee,\n            tokenPriceAtLastFeeMint\n        );\n    }\n\n    function getManagerFee() external view returns (uint256, uint256) {\n        return IHasFeeInfo(factory).getPoolManagerFee(address(this));\n    }\n\n    function setManagerFeeNumerator(uint256 numerator) public onlyManager {\n        _setManagerFeeNumerator(numerator);\n    }\n\n    function _setManagerFeeNumerator(uint256 numerator) internal {\n        IHasFeeInfo(factory).setPoolManagerFeeNumerator(address(this), numerator);\n        \n        uint256 managerFeeNumerator;\n        uint256 managerFeeDenominator;\n        (managerFeeNumerator, managerFeeDenominator) = IHasFeeInfo(factory).getPoolManagerFee(address(this));\n\n        emit ManagerFeeSet(\n            address(this),\n            manager(),\n            managerFeeNumerator,\n            managerFeeDenominator\n        );\n    }\n\n    // Exit fees\n\n    function getExitFee() external view returns (uint256, uint256) {\n        return IHasFeeInfo(factory).getExitFee();\n    }\n\n    function getExitFeeCooldown() external view returns (uint256) {\n        return IHasFeeInfo(factory).getExitFeeCooldown();\n    }\n\n    function getExitFeeRemainingCooldown(address sender) public view returns (uint256) {\n        uint256 cooldown = IHasFeeInfo(factory).getExitFeeCooldown();\n        uint256 cooldownFinished = lastDeposit[sender].add(cooldown);\n\n        if (cooldownFinished < block.timestamp)\n            return 0;\n\n        return cooldownFinished.sub(block.timestamp);\n    }\n\n    uint256[50] private __gap;\n}\n",
  "sourcePath": "/Users/radek/git/dhedge/contracts/DHedge.sol",
  "compiler": {
    "name": "solc",
    "version": "0.6.2+commit.bacdbe57.Emscripten.clang"
  },
  "schemaVersion": "3.2.0",
  "updatedAt": "2020-10-07T01:57:31.676Z",
  "devdoc": {
    "methods": {
      "allowance(address,address)": {
        "details": "See {IERC20-allowance}."
      },
      "approve(address,uint256)": {
        "details": "See {IERC20-approve}.     * Requirements:     * - `spender` cannot be the zero address."
      },
      "balanceOf(address)": {
        "details": "See {IERC20-balanceOf}."
      },
      "decimals()": {
        "details": "Returns the number of decimals used to get its user representation. For example, if `decimals` equals `2`, a balance of `505` tokens should be displayed to a user as `5,05` (`505 / 10 ** 2`).     * Tokens usually opt for a value of 18, imitating the relationship between Ether and Wei. This is the value {ERC20} uses, unless {_setupDecimals} is called.     * NOTE: This information is only used for _display_ purposes: it in no way affects any of the arithmetic of the contract, including {IERC20-balanceOf} and {IERC20-transfer}."
      },
      "decreaseAllowance(address,uint256)": {
        "details": "Atomically decreases the allowance granted to `spender` by the caller.     * This is an alternative to {approve} that can be used as a mitigation for problems described in {IERC20-approve}.     * Emits an {Approval} event indicating the updated allowance.     * Requirements:     * - `spender` cannot be the zero address. - `spender` must have allowance for the caller of at least `subtractedValue`."
      },
      "increaseAllowance(address,uint256)": {
        "details": "Atomically increases the allowance granted to `spender` by the caller.     * This is an alternative to {approve} that can be used as a mitigation for problems described in {IERC20-approve}.     * Emits an {Approval} event indicating the updated allowance.     * Requirements:     * - `spender` cannot be the zero address."
      },
      "name()": {
        "details": "Returns the name of the token."
      },
      "symbol()": {
        "details": "Returns the symbol of the token, usually a shorter version of the name."
      },
      "totalSupply()": {
        "details": "See {IERC20-totalSupply}."
      },
      "transfer(address,uint256)": {
        "details": "See {IERC20-transfer}.     * Requirements:     * - `recipient` cannot be the zero address. - the caller must have a balance of at least `amount`."
      },
      "transferFrom(address,address,uint256)": {
        "details": "See {IERC20-transferFrom}.     * Emits an {Approval} event indicating the updated allowance. This is not required by the EIP. See the note at the beginning of {ERC20};     * Requirements: - `sender` and `recipient` cannot be the zero address. - `sender` must have a balance of at least `amount`. - the caller must have allowance for ``sender``'s tokens of at least `amount`."
      }
    }
  },
  "userdoc": {
    "methods": {}
  }
}